{
  "_format": "hh-sol-artifact-1",
  "contractName": "FheMultiSig",
  "sourceName": "contracts/FheMultiSig.sol",
  "abi": [
    {
      "inputs": [
        {
          "internalType": "address[]",
          "name": "_owners",
          "type": "address[]"
        },
        {
          "internalType": "uint256",
          "name": "_voteThreshold",
          "type": "uint256"
        },
        {
          "internalType": "uint256",
          "name": "_executeThreshold",
          "type": "uint256"
        }
      ],
      "stateMutability": "nonpayable",
      "type": "constructor"
    },
    {
      "anonymous": false,
      "inputs": [
        {
          "indexed": true,
          "internalType": "address",
          "name": "sender",
          "type": "address"
        },
        {
          "indexed": true,
          "internalType": "uint256",
          "name": "nonce",
          "type": "uint256"
        }
      ],
      "name": "Confirmation",
      "type": "event"
    },
    {
      "anonymous": false,
      "inputs": [],
      "name": "EIP712DomainChanged",
      "type": "event"
    },
    {
      "anonymous": false,
      "inputs": [
        {
          "indexed": true,
          "internalType": "uint256",
          "name": "transactionId",
          "type": "uint256"
        }
      ],
      "name": "Execution",
      "type": "event"
    },
    {
      "anonymous": false,
      "inputs": [
        {
          "indexed": true,
          "internalType": "uint256",
          "name": "transactionId",
          "type": "uint256"
        }
      ],
      "name": "ExecutionFailure",
      "type": "event"
    },
    {
      "anonymous": false,
      "inputs": [
        {
          "indexed": true,
          "internalType": "uint256",
          "name": "transactionId",
          "type": "uint256"
        }
      ],
      "name": "Submission",
      "type": "event"
    },
    {
      "anonymous": false,
      "inputs": [
        {
          "indexed": false,
          "internalType": "uint256",
          "name": "nonce",
          "type": "uint256"
        },
        {
          "indexed": true,
          "internalType": "bool",
          "name": "result",
          "type": "bool"
        }
      ],
      "name": "VotingResult",
      "type": "event"
    },
    {
      "inputs": [
        {
          "components": [
            {
              "internalType": "bytes",
              "name": "data",
              "type": "bytes"
            }
          ],
          "internalType": "struct inEuint32",
          "name": "encryptedValue",
          "type": "tuple"
        }
      ],
      "name": "add",
      "outputs": [],
      "stateMutability": "nonpayable",
      "type": "function"
    },
    {
      "inputs": [
        {
          "internalType": "uint256",
          "name": "nonce",
          "type": "uint256"
        },
        {
          "components": [
            {
              "internalType": "bytes",
              "name": "data",
              "type": "bytes"
            }
          ],
          "internalType": "struct inEuint32",
          "name": "vote",
          "type": "tuple"
        }
      ],
      "name": "confirmTransaction",
      "outputs": [],
      "stateMutability": "nonpayable",
      "type": "function"
    },
    {
      "inputs": [
        {
          "internalType": "uint256",
          "name": "",
          "type": "uint256"
        },
        {
          "internalType": "address",
          "name": "",
          "type": "address"
        }
      ],
      "name": "confirmations",
      "outputs": [
        {
          "internalType": "bytes",
          "name": "data",
          "type": "bytes"
        }
      ],
      "stateMutability": "view",
      "type": "function"
    },
    {
      "inputs": [],
      "name": "eip712Domain",
      "outputs": [
        {
          "internalType": "bytes1",
          "name": "fields",
          "type": "bytes1"
        },
        {
          "internalType": "string",
          "name": "name",
          "type": "string"
        },
        {
          "internalType": "string",
          "name": "version",
          "type": "string"
        },
        {
          "internalType": "uint256",
          "name": "chainId",
          "type": "uint256"
        },
        {
          "internalType": "address",
          "name": "verifyingContract",
          "type": "address"
        },
        {
          "internalType": "bytes32",
          "name": "salt",
          "type": "bytes32"
        },
        {
          "internalType": "uint256[]",
          "name": "extensions",
          "type": "uint256[]"
        }
      ],
      "stateMutability": "view",
      "type": "function"
    },
    {
      "inputs": [
        {
          "internalType": "uint256",
          "name": "nonce",
          "type": "uint256"
        }
      ],
      "name": "executeTransaction",
      "outputs": [],
      "stateMutability": "nonpayable",
      "type": "function"
    },
    {
      "inputs": [
        {
          "internalType": "uint256",
          "name": "",
          "type": "uint256"
        }
      ],
      "name": "finalizations",
      "outputs": [
        {
          "internalType": "euint32",
          "name": "",
          "type": "uint256"
        }
      ],
      "stateMutability": "view",
      "type": "function"
    },
    {
      "inputs": [
        {
          "internalType": "uint256",
          "name": "nonce",
          "type": "uint256"
        }
      ],
      "name": "finalize",
      "outputs": [],
      "stateMutability": "nonpayable",
      "type": "function"
    },
    {
      "inputs": [],
      "name": "getCounter",
      "outputs": [
        {
          "internalType": "uint256",
          "name": "",
          "type": "uint256"
        }
      ],
      "stateMutability": "view",
      "type": "function"
    },
    {
      "inputs": [
        {
          "components": [
            {
              "internalType": "bytes32",
              "name": "publicKey",
              "type": "bytes32"
            },
            {
              "internalType": "bytes",
              "name": "signature",
              "type": "bytes"
            }
          ],
          "internalType": "struct Permission",
          "name": "permission",
          "type": "tuple"
        }
      ],
      "name": "getCounterPermit",
      "outputs": [
        {
          "internalType": "uint256",
          "name": "",
          "type": "uint256"
        }
      ],
      "stateMutability": "view",
      "type": "function"
    },
    {
      "inputs": [
        {
          "components": [
            {
              "internalType": "bytes32",
              "name": "publicKey",
              "type": "bytes32"
            },
            {
              "internalType": "bytes",
              "name": "signature",
              "type": "bytes"
            }
          ],
          "internalType": "struct Permission",
          "name": "permission",
          "type": "tuple"
        }
      ],
      "name": "getCounterPermitSealed",
      "outputs": [
        {
          "internalType": "bytes",
          "name": "",
          "type": "bytes"
        }
      ],
      "stateMutability": "view",
      "type": "function"
    },
    {
      "inputs": [
        {
          "internalType": "address",
          "name": "owner",
          "type": "address"
        }
      ],
      "name": "getFheTransactions",
      "outputs": [
        {
          "components": [
            {
              "internalType": "address",
              "name": "to",
              "type": "address"
            },
            {
              "internalType": "uint256",
              "name": "value",
              "type": "uint256"
            },
            {
              "internalType": "bool",
              "name": "executed",
              "type": "bool"
            },
            {
              "internalType": "bool",
              "name": "finalized",
              "type": "bool"
            },
            {
              "internalType": "uint256",
              "name": "voteNumber",
              "type": "uint256"
            },
            {
              "internalType": "uint256",
              "name": "votingResult",
              "type": "uint256"
            },
            {
              "internalType": "bytes",
              "name": "data",
              "type": "bytes"
            }
          ],
          "internalType": "struct FheMultiSig.FheTransaction[]",
          "name": "",
          "type": "tuple[]"
        },
        {
          "internalType": "address[]",
          "name": "",
          "type": "address[]"
        },
        {
          "internalType": "bool[]",
          "name": "",
          "type": "bool[]"
        },
        {
          "internalType": "uint256",
          "name": "",
          "type": "uint256"
        },
        {
          "internalType": "uint256",
          "name": "",
          "type": "uint256"
        },
        {
          "internalType": "uint256",
          "name": "",
          "type": "uint256"
        }
      ],
      "stateMutability": "view",
      "type": "function"
    },
    {
      "inputs": [
        {
          "internalType": "uint256",
          "name": "",
          "type": "uint256"
        },
        {
          "internalType": "address",
          "name": "",
          "type": "address"
        }
      ],
      "name": "isConfirmations",
      "outputs": [
        {
          "internalType": "bool",
          "name": "",
          "type": "bool"
        }
      ],
      "stateMutability": "view",
      "type": "function"
    },
    {
      "inputs": [
        {
          "internalType": "uint256",
          "name": "nonce",
          "type": "uint256"
        }
      ],
      "name": "isConfirmed",
      "outputs": [
        {
          "internalType": "bool",
          "name": "",
          "type": "bool"
        }
      ],
      "stateMutability": "nonpayable",
      "type": "function"
    },
    {
      "inputs": [
        {
          "internalType": "address",
          "name": "",
          "type": "address"
        }
      ],
      "name": "isOwner",
      "outputs": [
        {
          "internalType": "bool",
          "name": "",
          "type": "bool"
        }
      ],
      "stateMutability": "view",
      "type": "function"
    },
    {
      "inputs": [
        {
          "internalType": "uint256",
          "name": "",
          "type": "uint256"
        }
      ],
      "name": "owners",
      "outputs": [
        {
          "internalType": "address",
          "name": "",
          "type": "address"
        }
      ],
      "stateMutability": "view",
      "type": "function"
    },
    {
      "inputs": [
        {
          "internalType": "address",
          "name": "destination",
          "type": "address"
        },
        {
          "internalType": "uint256",
          "name": "value",
          "type": "uint256"
        },
        {
          "internalType": "bytes",
          "name": "data",
          "type": "bytes"
        }
      ],
      "name": "submitTransaction",
      "outputs": [
        {
          "internalType": "uint256",
          "name": "nonce",
          "type": "uint256"
        }
      ],
      "stateMutability": "nonpayable",
      "type": "function"
    },
    {
      "stateMutability": "payable",
      "type": "receive"
    }
  ],
  "bytecode": "0x6101606040526200001760016200018560201b60201c565b6003553480156200002757600080fd5b5060405162004bb438038062004bb483398181016040528101906200004d919062000909565b6040518060400160405280601181526020017f4668656e6978205065726d697373696f6e0000000000000000000000000000008152506040518060400160405280600381526020017f312e300000000000000000000000000000000000000000000000000000000000815250620000cf600083620001a160201b90919060201c565b6101208181525050620000ed600182620001a160201b90919060201c565b6101408181525050818051906020012060e08181525050808051906020012061010081815250504660a081815250506200012c620001f960201b60201c565b608081815250503073ffffffffffffffffffffffffffffffffffffffff1660c08173ffffffffffffffffffffffffffffffffffffffff168152505050506200017c8383836200025660201b60201c565b505050620011a1565b60006200019a8260026200054360201b60201c565b9050919050565b6000602083511015620001c757620001bf83620005fa60201b60201c565b9050620001f3565b82620001d9836200066760201b60201c565b6000019081620001ea919062000bc5565b5060ff60001b90505b92915050565b60007f8b73c3c69bb8fe3d512ecc4cf759cc79239f7b179b0ffacaa9a75d522b39400f60e0516101005146306040516020016200023b95949392919062000ce9565b60405160208183030381529060405280519060200120905090565b82518111156200029d576040517f08c379a0000000000000000000000000000000000000000000000000000000008152600401620002949062000d81565b60405180910390fd5b60008103620002e3576040517f08c379a0000000000000000000000000000000000000000000000000000000008152600401620002da9062000d81565b60405180910390fd5b600080600090505b8451811015620005265760008582815181106200030d576200030c62000da3565b5b60200260200101519050600073ffffffffffffffffffffffffffffffffffffffff168173ffffffffffffffffffffffffffffffffffffffff1614806200037e57503073ffffffffffffffffffffffffffffffffffffffff168173ffffffffffffffffffffffffffffffffffffffff16145b15620003c1576040517f08c379a0000000000000000000000000000000000000000000000000000000008152600401620003b89062000d81565b60405180910390fd5b600460008273ffffffffffffffffffffffffffffffffffffffff1673ffffffffffffffffffffffffffffffffffffffff16815260200190815260200160002060009054906101000a900460ff161562000451576040517f08c379a0000000000000000000000000000000000000000000000000000000008152600401620004489062000e22565b60405180910390fd5b8092506005839080600181540180825580915050600190039060005260206000200160009091909190916101000a81548173ffffffffffffffffffffffffffffffffffffffff021916908373ffffffffffffffffffffffffffffffffffffffff1602179055506001600460008573ffffffffffffffffffffffffffffffffffffffff1673ffffffffffffffffffffffffffffffffffffffff16815260200190815260200160002060006101000a81548160ff0219169083151502179055505080806200051d9062000e73565b915050620002eb565b508351600a8190555082600c8190555081600b8190555050505050565b60006060608073ffffffffffffffffffffffffffffffffffffffff166319e1c5c462000575866200067160201b60201c565b856040518363ffffffff1660e01b81526004016200059592919062000f67565b600060405180830381865afa158015620005b3573d6000803e3d6000fd5b505050506040513d6000823e3d601f19601f82011682018060405250810190620005de919062001054565b9050620005f181620006d260201b60201c565b91505092915050565b600080829050601f815111156200064a57826040517f305a27a9000000000000000000000000000000000000000000000000000000008152600401620006419190620010e6565b60405180910390fd5b805181620006589062001131565b60001c1760001b915050919050565b6000819050919050565b6060602067ffffffffffffffff8111156200069157620006906200070a565b5b6040519080825280601f01601f191660200182016040528015620006c45781602001600182028036833780820191505090505b509050816020820152919050565b600060208201519050919050565b6000604051905090565b600080fd5b600080fd5b600080fd5b6000601f19601f8301169050919050565b7f4e487b7100000000000000000000000000000000000000000000000000000000600052604160045260246000fd5b6200074482620006f9565b810181811067ffffffffffffffff821117156200076657620007656200070a565b5b80604052505050565b60006200077b620006e0565b905062000789828262000739565b919050565b600067ffffffffffffffff821115620007ac57620007ab6200070a565b5b602082029050602081019050919050565b600080fd5b600073ffffffffffffffffffffffffffffffffffffffff82169050919050565b6000620007ef82620007c2565b9050919050565b6200080181620007e2565b81146200080d57600080fd5b50565b6000815190506200082181620007f6565b92915050565b60006200083e62000838846200078e565b6200076f565b90508083825260208201905060208402830185811115620008645762000863620007bd565b5b835b818110156200089157806200087c888262000810565b84526020840193505060208101905062000866565b5050509392505050565b600082601f830112620008b357620008b2620006f4565b5b8151620008c584826020860162000827565b91505092915050565b6000819050919050565b620008e381620008ce565b8114620008ef57600080fd5b50565b6000815190506200090381620008d8565b92915050565b600080600060608486031215620009255762000924620006ea565b5b600084015167ffffffffffffffff811115620009465762000945620006ef565b5b62000954868287016200089b565b93505060206200096786828701620008f2565b92505060406200097a86828701620008f2565b9150509250925092565b600081519050919050565b7f4e487b7100000000000000000000000000000000000000000000000000000000600052602260045260246000fd5b60006002820490506001821680620009d757607f821691505b602082108103620009ed57620009ec6200098f565b5b50919050565b60008190508160005260206000209050919050565b60006020601f8301049050919050565b600082821b905092915050565b60006008830262000a577fffffffffffffffffffffffffffffffffffffffffffffffffffffffffffffffff8262000a18565b62000a63868362000a18565b95508019841693508086168417925050509392505050565b6000819050919050565b600062000aa662000aa062000a9a84620008ce565b62000a7b565b620008ce565b9050919050565b6000819050919050565b62000ac28362000a85565b62000ada62000ad18262000aad565b84845462000a25565b825550505050565b600090565b62000af162000ae2565b62000afe81848462000ab7565b505050565b5b8181101562000b265762000b1a60008262000ae7565b60018101905062000b04565b5050565b601f82111562000b755762000b3f81620009f3565b62000b4a8462000a08565b8101602085101562000b5a578190505b62000b7262000b698562000a08565b83018262000b03565b50505b505050565b600082821c905092915050565b600062000b9a6000198460080262000b7a565b1980831691505092915050565b600062000bb5838362000b87565b9150826002028217905092915050565b62000bd08262000984565b67ffffffffffffffff81111562000bec5762000beb6200070a565b5b62000bf88254620009be565b62000c0582828562000b2a565b600060209050601f83116001811462000c3d576000841562000c28578287015190505b62000c34858262000ba7565b86555062000ca4565b601f19841662000c4d86620009f3565b60005b8281101562000c775784890151825560018201915060208501945060208101905062000c50565b8683101562000c97578489015162000c93601f89168262000b87565b8355505b6001600288020188555050505b505050505050565b6000819050919050565b62000cc18162000cac565b82525050565b62000cd281620008ce565b82525050565b62000ce381620007e2565b82525050565b600060a08201905062000d00600083018862000cb6565b62000d0f602083018762000cb6565b62000d1e604083018662000cb6565b62000d2d606083018562000cc7565b62000d3c608083018462000cd8565b9695505050505050565b600082825260208201905092915050565b50565b600062000d6960008362000d46565b915062000d768262000d57565b600082019050919050565b6000602082019050818103600083015262000d9c8162000d5a565b9050919050565b7f4e487b7100000000000000000000000000000000000000000000000000000000600052603260045260246000fd5b7f6475706c6963617465206f776e65720000000000000000000000000000000000600082015250565b600062000e0a600f8362000d46565b915062000e178262000dd2565b602082019050919050565b6000602082019050818103600083015262000e3d8162000dfb565b9050919050565b7f4e487b7100000000000000000000000000000000000000000000000000000000600052601160045260246000fd5b600062000e8082620008ce565b91507fffffffffffffffffffffffffffffffffffffffffffffffffffffffffffffffff820362000eb55762000eb462000e44565b5b600182019050919050565b600081519050919050565b600082825260208201905092915050565b60005b8381101562000efc57808201518184015260208101905062000edf565b60008484015250505050565b600062000f158262000ec0565b62000f21818562000ecb565b935062000f3381856020860162000edc565b62000f3e81620006f9565b840191505092915050565b600060ff82169050919050565b62000f618162000f49565b82525050565b6000604082019050818103600083015262000f83818562000f08565b905062000f94602083018462000f56565b9392505050565b600080fd5b600067ffffffffffffffff82111562000fbe5762000fbd6200070a565b5b62000fc982620006f9565b9050602081019050919050565b600062000fed62000fe78462000fa0565b6200076f565b9050828152602081018484840111156200100c576200100b62000f9b565b5b6200101984828562000edc565b509392505050565b600082601f830112620010395762001038620006f4565b5b81516200104b84826020860162000fd6565b91505092915050565b6000602082840312156200106d576200106c620006ea565b5b600082015167ffffffffffffffff8111156200108e576200108d620006ef565b5b6200109c8482850162001021565b91505092915050565b6000620010b28262000984565b620010be818562000d46565b9350620010d081856020860162000edc565b620010db81620006f9565b840191505092915050565b60006020820190508181036000830152620011028184620010a5565b905092915050565b6000819050602082019050919050565b600062001128825162000cac565b80915050919050565b60006200113e8262000ec0565b826200114a846200110a565b905062001157816200111a565b925060208210156200119a57620011957fffffffffffffffffffffffffffffffffffffffffffffffffffffffffffffffff8360200360080262000a18565b831692505b5050919050565b60805160a05160c05160e0516101005161012051610140516139b8620011fc60003960006117580152600061171d015260006121870152600061216601526000611acc01526000611b2201526000611b4b01526139b86000f3fe6080604052600436106100f75760003560e01c8063784547a71161008a5780638ada066e116100595780638ada066e1461039c578063ab07a956146103c7578063c642747414610404578063ee22610b14610441576100fe565b8063784547a7146102c8578063787b840f1461030557806384b0196e14610342578063859fc54214610373576100fe565b80632f54bf6e116100c65780632f54bf6e146101d45780633411c81c146102115780634718d5271461024e5780635ef89f331461028b576100fe565b8063025e7c271461010357806305261aea146101405780630b511ffc146101695780630ded86d314610192576100fe565b366100fe57005b600080fd5b34801561010f57600080fd5b5061012a600480360381019061012591906124ee565b61046a565b604051610137919061255c565b60405180910390f35b34801561014c57600080fd5b50610167600480360381019061016291906124ee565b6104a9565b005b34801561017557600080fd5b50610190600480360381019061018b919061259b565b610797565b005b34801561019e57600080fd5b506101b960048036038101906101b49190612623565b610a1a565b6040516101cb969594939291906129e4565b60405180910390f35b3480156101e057600080fd5b506101fb60048036038101906101f69190612623565b610d92565b6040516102089190612a69565b60405180910390f35b34801561021d57600080fd5b5061023860048036038101906102339190612a84565b610db2565b6040516102459190612b0e565b60405180910390f35b34801561025a57600080fd5b50610275600480360381019061027091906124ee565b610e65565b6040516102829190612b6b565b60405180910390f35b34801561029757600080fd5b506102b260048036038101906102ad9190612d67565b610e7d565b6040516102bf9190612db0565b60405180910390f35b3480156102d457600080fd5b506102ef60048036038101906102ea91906124ee565b610f6b565b6040516102fc9190612a69565b60405180910390f35b34801561031157600080fd5b5061032c60048036038101906103279190612a84565b611069565b6040516103399190612a69565b60405180910390f35b34801561034e57600080fd5b50610357611098565b60405161036a9796959493929190612f19565b60405180910390f35b34801561037f57600080fd5b5061039a60048036038101906103959190612f9d565b611142565b005b3480156103a857600080fd5b506103b161116e565b6040516103be9190612db0565b60405180910390f35b3480156103d357600080fd5b506103ee60048036038101906103e99190612d67565b611186565b6040516103fb9190612b0e565b60405180910390f35b34801561041057600080fd5b5061042b60048036038101906104269190613046565b611273565b6040516104389190612db0565b60405180910390f35b34801561044d57600080fd5b50610468600480360381019061046391906124ee565b61128b565b005b6005818154811061047a57600080fd5b906000526020600020016000915054906101000a900473ffffffffffffffffffffffffffffffffffffffff1681565b806006600082815260200190815260200160002060020160009054906101000a900460ff16156104d857600080fd5b816006600082815260200190815260200160002060020160019054906101000a900460ff161561050757600080fd5b61051083610f6b565b1561079257600060066000858152602001908152602001600020905060018160020160016101000a81548160ff021916908315150217905550600080600090505b600a548110156107765760086000878152602001908152602001600020600060058381548110610584576105836130ba565b5b9060005260206000200160009054906101000a900473ffffffffffffffffffffffffffffffffffffffff1673ffffffffffffffffffffffffffffffffffffffff1673ffffffffffffffffffffffffffffffffffffffff16815260200190815260200160002060009054906101000a900460ff16156107635760006107316007600089815260200190815260200160002060006005858154811061062a576106296130ba565b5b9060005260206000200160009054906101000a900473ffffffffffffffffffffffffffffffffffffffff1673ffffffffffffffffffffffffffffffffffffffff1673ffffffffffffffffffffffffffffffffffffffff1681526020019081526020016000206040518060200160405290816000820180546106aa90613118565b80601f01602080910402602001604051908101604052809291908181526020018280546106d690613118565b80156107235780601f106106f857610100808354040283529160200191610723565b820191906000526020600020905b81548152906001019060200180831161070657829003601f168201915b5050505050815250506115bb565b9050600061074a600354836115d190919063ffffffff16565b905061075e84610759836115e5565b6115f7565b935050505b808061076e90613178565b915050610551565b5080600960008781526020019081526020016000208190555050505b505050565b33600460008273ffffffffffffffffffffffffffffffffffffffff1673ffffffffffffffffffffffffffffffffffffffff16815260200190815260200160002060009054906101000a900460ff166107ee57600080fd5b82600073ffffffffffffffffffffffffffffffffffffffff166006600083815260200190815260200160002060000160009054906101000a900473ffffffffffffffffffffffffffffffffffffffff1673ffffffffffffffffffffffffffffffffffffffff160361085e57600080fd5b83336008600083815260200190815260200160002060008273ffffffffffffffffffffffffffffffffffffffff1673ffffffffffffffffffffffffffffffffffffffff16815260200190815260200160002060009054906101000a900460ff16156108c857600080fd5b846007600088815260200190815260200160002060003373ffffffffffffffffffffffffffffffffffffffff1673ffffffffffffffffffffffffffffffffffffffff168152602001908152602001600020818161092591906134c2565b9050506001600660008881526020019081526020016000206003015461094b91906134d0565b600660008881526020019081526020016000206003018190555060016008600088815260200190815260200160002060003373ffffffffffffffffffffffffffffffffffffffff1673ffffffffffffffffffffffffffffffffffffffff16815260200190815260200160002060006101000a81548160ff021916908315150217905550853373ffffffffffffffffffffffffffffffffffffffff167f4a504a94899432a9846e1aa406dceb1bcfd538bb839071d49d1e5e23f5be30ef60405160405180910390a3505050505050565b6060806060600080600080600d5467ffffffffffffffff811115610a4157610a40612b8b565b5b604051908082528060200260200182016040528015610a7a57816020015b610a6761244d565b815260200190600190039081610a5f5790505b5090506000600d5467ffffffffffffffff811115610a9b57610a9a612b8b565b5b604051908082528060200260200182016040528015610ac95781602001602082028036833780820191505090505b50905060005b600d54811015610ce757600660008281526020019081526020016000206040518060e00160405290816000820160009054906101000a900473ffffffffffffffffffffffffffffffffffffffff1673ffffffffffffffffffffffffffffffffffffffff1673ffffffffffffffffffffffffffffffffffffffff168152602001600182015481526020016002820160009054906101000a900460ff161515151581526020016002820160019054906101000a900460ff161515151581526020016003820154815260200160048201548152602001600582018054610bb190613118565b80601f0160208091040260200160405190810160405280929190818152602001828054610bdd90613118565b8015610c2a5780601f10610bff57610100808354040283529160200191610c2a565b820191906000526020600020905b815481529060010190602001808311610c0d57829003601f168201915b505050505081525050838281518110610c4657610c456130ba565b5b60200260200101819052506008600082815260200190815260200160002060008b73ffffffffffffffffffffffffffffffffffffffff1673ffffffffffffffffffffffffffffffffffffffff16815260200190815260200160002060009054906101000a900460ff16828281518110610cc257610cc16130ba565b5b6020026020010190151590811515815250508080610cdf90613178565b915050610acf565b5081600582600c54600b544784805480602002602001604051908101604052809291908181526020018280548015610d7457602002820191906000526020600020905b8160009054906101000a900473ffffffffffffffffffffffffffffffffffffffff1673ffffffffffffffffffffffffffffffffffffffff1681526020019060010190808311610d2a575b50505050509450975097509750975097509750505091939550919395565b60046020528060005260406000206000915054906101000a900460ff1681565b600760205281600052604060002060205280600052604060002060009150915050806000018054610de290613118565b80601f0160208091040260200160405190810160405280929190818152602001828054610e0e90613118565b8015610e5b5780601f10610e3057610100808354040283529160200191610e5b565b820191906000526020600020905b815481529060010190602001808311610e3e57829003601f168201915b5050505050905081565b60096020528060005260406000206000915090505481565b6000816000610ed77f6bdaeb2d29561f159c7ef98b16b27015fb2aeb87209c7ee656226d912f59927d8360000151604051602001610ebc929190613504565b6040516020818303038152906040528051906020012061160b565b90506000610ee9828460200151611625565b90503373ffffffffffffffffffffffffffffffffffffffff168173ffffffffffffffffffffffffffffffffffffffff1614610f50576040517f3093a27700000000000000000000000000000000000000000000000000000000815260040160405180910390fd5b610f5b600254611651565b63ffffffff169350505050919050565b6000806000905060005b600a5481101561105d576001151560086000868152602001908152602001600020600060058481548110610fac57610fab6130ba565b5b9060005260206000200160009054906101000a900473ffffffffffffffffffffffffffffffffffffffff1673ffffffffffffffffffffffffffffffffffffffff1673ffffffffffffffffffffffffffffffffffffffff16815260200190815260200160002060009054906101000a900460ff161515036110365760018261103391906134d0565b91505b600c54820361104a57600192505050611064565b808061105590613178565b915050610f75565b5060009150505b919050565b60086020528160005260406000206020528060005260406000206000915091509054906101000a900460ff1681565b6000606080600080600060606110ac611714565b6110b461174f565b46306000801b600067ffffffffffffffff8111156110d5576110d4612b8b565b5b6040519080825280602002602001820160405280156111035781602001602082028036833780820191505090505b507f0f00000000000000000000000000000000000000000000000000000000000000959493929190965096509650965096509650965090919293949596565b60006111568261115190613585565b6115bb565b9050611164600254826115f7565b6002819055505050565b600061117b600254611651565b63ffffffff16905090565b60608160006111e07f6bdaeb2d29561f159c7ef98b16b27015fb2aeb87209c7ee656226d912f59927d83600001516040516020016111c5929190613504565b6040516020818303038152906040528051906020012061160b565b905060006111f2828460200151611625565b90503373ffffffffffffffffffffffffffffffffffffffff168173ffffffffffffffffffffffffffffffffffffffff1614611259576040517f3093a27700000000000000000000000000000000000000000000000000000000815260040160405180910390fd5b611269600254866000015161178a565b9350505050919050565b6000611281858585856117c0565b9050949350505050565b33600460008273ffffffffffffffffffffffffffffffffffffffff1673ffffffffffffffffffffffffffffffffffffffff16815260200190815260200160002060009054906101000a900460ff166112e257600080fd5b816006600082815260200190815260200160002060020160019054906101000a900460ff1661131057600080fd5b826006600082815260200190815260200160002060020160009054906101000a900460ff161561133f57600080fd5b600b5461135e6009600087815260200190815260200160002054611651565b63ffffffff161061153a5760006006600086815260200190815260200160002090506114508160000160009054906101000a900473ffffffffffffffffffffffffffffffffffffffff1682600101548360050180546113bc90613118565b90508460050180546113cd90613118565b80601f01602080910402602001604051908101604052809291908181526020018280546113f990613118565b80156114465780601f1061141b57610100808354040283529160200191611446565b820191906000526020600020905b81548152906001019060200180831161142957829003601f168201915b5050505050611980565b156114e957847f33e13ecb54c3076d8e8bb8c2881800a4d972b792045ffae98fdf46df365fed7560405160405180910390a260018160020160006101000a81548160ff02191690831515021790555060028160040181905550600115157f049de4977fab0d0c9400ce593200f7017913f3e0191e314bf9540d09a005f9e8866040516114dc9190612db0565b60405180910390a2611534565b847f526441bb6c1aba3c9a4a6ca1d6545da9c2333c8c48343ef398eb858d72b7923660405160405180910390a260008160020160006101000a81548160ff0219169083151502179055505b506115b5565b600060066000868152602001908152602001600020905060018160020160006101000a81548160ff02191690831515021790555060018160040181905550600015157f049de4977fab0d0c9400ce593200f7017913f3e0191e314bf9540d09a005f9e8866040516115ab9190612db0565b60405180910390a2505b50505050565b60006115ca82600001516119ad565b9050919050565b60006115dd83836119c1565b905092915050565b60006115f082611a3a565b9050919050565b60006116038383611a50565b905092915050565b600061161e611618611ac8565b83611b7f565b9050919050565b6000806000806116358686611bc0565b9250925092506116458282611c1c565b82935050505092915050565b600061165c82611d80565b61166d5761166a6000611d8d565b91505b6000829050600061167d82611da1565b90506000608073ffffffffffffffffffffffffffffffffffffffff166373cc01546002846040518363ffffffff1660e01b81526004016116be9291906135b4565b602060405180830381865afa1580156116db573d6000803e3d6000fd5b505050506040513d601f19601f820116820180604052508101906116ff91906135f9565b905061170a81611dfe565b9350505050919050565b606061174a60007f0000000000000000000000000000000000000000000000000000000000000000611e0890919063ffffffff16565b905090565b606061178560017f0000000000000000000000000000000000000000000000000000000000000000611e0890919063ffffffff16565b905090565b606061179583611d80565b6117a6576117a36000611d8d565b92505b60008390506117b760028285611eb8565b91505092915050565b6000600d5490506040518060e001604052808673ffffffffffffffffffffffffffffffffffffffff168152602001858152602001600015158152602001600015158152602001600081526020016000815260200184848080601f016020809104026020016040519081016040528093929190818152602001838380828437600081840152601f19601f8201169050808301925050505050505081525060066000600d54815260200190815260200160002060008201518160000160006101000a81548173ffffffffffffffffffffffffffffffffffffffff021916908373ffffffffffffffffffffffffffffffffffffffff1602179055506020820151816001015560408201518160020160006101000a81548160ff02191690831515021790555060608201518160020160016101000a81548160ff0219169083151502179055506080820151816003015560a0820151816004015560c082015181600501908161192b9190613626565b509050506001600d600082825461194291906134d0565b92505081905550600d547fc0ba8fe4b176c1714197d43b9cc6bcf797a4a7461c5fe8d0ef6e184ae7601e5160405160405180910390a2949350505050565b60008060005a90506040516020850160008288838b8d6187968903f1935050508192505050949350505050565b60006119ba826002611f6e565b9050919050565b60006119cc83611d80565b6119dd576119da6000611d8d565b92505b6119e682611d80565b6119f7576119f46000611d8d565b91505b600083905060008390506000611a2c60028484608073ffffffffffffffffffffffffffffffffffffffff166392348b34612008565b905080935050505092915050565b6000611a49600083600261209c565b9050919050565b6000611a5b83611d80565b611a6c57611a696000611d8d565b92505b611a7582611d80565b611a8657611a836000611d8d565b91505b600083905060008390506000611aba60028484608073ffffffffffffffffffffffffffffffffffffffff16622df619612008565b905080935050505092915050565b60007f000000000000000000000000000000000000000000000000000000000000000073ffffffffffffffffffffffffffffffffffffffff163073ffffffffffffffffffffffffffffffffffffffff16148015611b4457507f000000000000000000000000000000000000000000000000000000000000000046145b15611b71577f00000000000000000000000000000000000000000000000000000000000000009050611b7c565b611b79612141565b90505b90565b60006040517f190100000000000000000000000000000000000000000000000000000000000081528360028201528260228201526042812091505092915050565b60008060006041845103611c055760008060006020870151925060408701519150606087015160001a9050611bf7888285856121d7565b955095509550505050611c15565b60006002855160001b9250925092505b9250925092565b60006003811115611c3057611c2f6136f8565b5b826003811115611c4357611c426136f8565b5b0315611d7c5760016003811115611c5d57611c5c6136f8565b5b826003811115611c7057611c6f6136f8565b5b03611ca7576040517ff645eedf00000000000000000000000000000000000000000000000000000000815260040160405180910390fd5b60026003811115611cbb57611cba6136f8565b5b826003811115611cce57611ccd6136f8565b5b03611d13578060001c6040517ffce698f7000000000000000000000000000000000000000000000000000000008152600401611d0a9190612db0565b60405180910390fd5b600380811115611d2657611d256136f8565b5b826003811115611d3957611d386136f8565b5b03611d7b57806040517fd78bce0c000000000000000000000000000000000000000000000000000000008152600401611d729190613727565b60405180910390fd5b5b5050565b6000808214159050919050565b6000611d9a8260026122cb565b9050919050565b6060602067ffffffffffffffff811115611dbe57611dbd612b8b565b5b6040519080825280601f01601f191660200182016040528015611df05781602001600182028036833780820191505090505b509050816020820152919050565b6000819050919050565b606060ff60001b8314611e2557611e1e8361236d565b9050611eb2565b818054611e3190613118565b80601f0160208091040260200160405190810160405280929190818152602001828054611e5d90613118565b8015611eaa5780601f10611e7f57610100808354040283529160200191611eaa565b820191906000526020600020905b815481529060010190602001808311611e8d57829003601f168201915b505050505090505b92915050565b6060608073ffffffffffffffffffffffffffffffffffffffff1663a1848ff385611ee186611da1565b85604051602001611ef29190613763565b6040516020818303038152906040526040518463ffffffff1660e01b8152600401611f1f9392919061377e565b600060405180830381865afa158015611f3c573d6000803e3d6000fd5b505050506040513d6000823e3d601f19601f82011682018060405250810190611f659190613833565b90509392505050565b60006060608073ffffffffffffffffffffffffffffffffffffffff16635fa55ca784866040518363ffffffff1660e01b8152600401611fae9291906135b4565b600060405180830381865afa158015611fcb573d6000803e3d6000fd5b505050506040513d6000823e3d601f19601f82011682018060405250810190611ff49190613833565b9050611fff816123e1565b91505092915050565b6000606083838861201889611da1565b61202189611da1565b6040518463ffffffff1660e01b815260040161203f9392919061377e565b600060405180830381865afa15801561205c573d6000803e3d6000fd5b505050506040513d6000823e3d601f19601f820116820180604052508101906120859190613833565b9050612090816123ef565b91505095945050505050565b60006060608073ffffffffffffffffffffffffffffffffffffffff16634a5a1117866120c787611da1565b866040518463ffffffff1660e01b81526004016120e69392919061387c565b600060405180830381865afa158015612103573d6000803e3d6000fd5b505050506040513d6000823e3d601f19601f8201168201806040525081019061212c9190613833565b9050612137816123e1565b9150509392505050565b60007f8b73c3c69bb8fe3d512ecc4cf759cc79239f7b179b0ffacaa9a75d522b39400f7f00000000000000000000000000000000000000000000000000000000000000007f000000000000000000000000000000000000000000000000000000000000000046306040516020016121bc9594939291906138ba565b60405160208183030381529060405280519060200120905090565b60008060007f7fffffffffffffffffffffffffffffff5d576e7357a4501ddfe92f46681b20a08460001c11156122175760006003859250925092506122c1565b60006001888888886040516000815260200160405260405161223c949392919061390d565b6020604051602081039080840390855afa15801561225e573d6000803e3d6000fd5b505050602060405103519050600073ffffffffffffffffffffffffffffffffffffffff168173ffffffffffffffffffffffffffffffffffffffff16036122b257600060016000801b935093509350506122c1565b8060008060001b935093509350505b9450945094915050565b60006060608073ffffffffffffffffffffffffffffffffffffffff166319e1c5c46122f586611da1565b856040518363ffffffff1660e01b8152600401612313929190613952565b600060405180830381865afa158015612330573d6000803e3d6000fd5b505050506040513d6000823e3d601f19601f820116820180604052508101906123599190613833565b9050612364816123e1565b91505092915050565b6060600061237a836123fd565b90506000602067ffffffffffffffff81111561239957612398612b8b565b5b6040519080825280601f01601f1916602001820160405280156123cb5781602001600182028036833780820191505090505b5090508181528360208201528092505050919050565b600060208201519050919050565b600060208201519050919050565b60008060ff8360001c169050601f811115612444576040517fb3512b0c00000000000000000000000000000000000000000000000000000000815260040160405180910390fd5b80915050919050565b6040518060e00160405280600073ffffffffffffffffffffffffffffffffffffffff168152602001600081526020016000151581526020016000151581526020016000815260200160008152602001606081525090565b6000604051905090565b600080fd5b600080fd5b6000819050919050565b6124cb816124b8565b81146124d657600080fd5b50565b6000813590506124e8816124c2565b92915050565b600060208284031215612504576125036124ae565b5b6000612512848285016124d9565b91505092915050565b600073ffffffffffffffffffffffffffffffffffffffff82169050919050565b60006125468261251b565b9050919050565b6125568161253b565b82525050565b6000602082019050612571600083018461254d565b92915050565b600080fd5b60006020828403121561259257612591612577565b5b81905092915050565b600080604083850312156125b2576125b16124ae565b5b60006125c0858286016124d9565b925050602083013567ffffffffffffffff8111156125e1576125e06124b3565b5b6125ed8582860161257c565b9150509250929050565b6126008161253b565b811461260b57600080fd5b50565b60008135905061261d816125f7565b92915050565b600060208284031215612639576126386124ae565b5b60006126478482850161260e565b91505092915050565b600081519050919050565b600082825260208201905092915050565b6000819050602082019050919050565b6126858161253b565b82525050565b612694816124b8565b82525050565b60008115159050919050565b6126af8161269a565b82525050565b600081519050919050565b600082825260208201905092915050565b60005b838110156126ef5780820151818401526020810190506126d4565b60008484015250505050565b6000601f19601f8301169050919050565b6000612717826126b5565b61272181856126c0565b93506127318185602086016126d1565b61273a816126fb565b840191505092915050565b600060e08301600083015161275d600086018261267c565b506020830151612770602086018261268b565b50604083015161278360408601826126a6565b50606083015161279660608601826126a6565b5060808301516127a9608086018261268b565b5060a08301516127bc60a086018261268b565b5060c083015184820360c08601526127d4828261270c565b9150508091505092915050565b60006127ed8383612745565b905092915050565b6000602082019050919050565b600061280d82612650565b612817818561265b565b9350836020820285016128298561266c565b8060005b85811015612865578484038952815161284685826127e1565b9450612851836127f5565b925060208a0199505060018101905061282d565b50829750879550505050505092915050565b600081519050919050565b600082825260208201905092915050565b6000819050602082019050919050565b60006128af838361267c565b60208301905092915050565b6000602082019050919050565b60006128d382612877565b6128dd8185612882565b93506128e883612893565b8060005b8381101561291957815161290088826128a3565b975061290b836128bb565b9250506001810190506128ec565b5085935050505092915050565b600081519050919050565b600082825260208201905092915050565b6000819050602082019050919050565b600061295e83836126a6565b60208301905092915050565b6000602082019050919050565b600061298282612926565b61298c8185612931565b935061299783612942565b8060005b838110156129c85781516129af8882612952565b97506129ba8361296a565b92505060018101905061299b565b5085935050505092915050565b6129de816124b8565b82525050565b600060c08201905081810360008301526129fe8189612802565b90508181036020830152612a1281886128c8565b90508181036040830152612a268187612977565b9050612a3560608301866129d5565b612a4260808301856129d5565b612a4f60a08301846129d5565b979650505050505050565b612a638161269a565b82525050565b6000602082019050612a7e6000830184612a5a565b92915050565b60008060408385031215612a9b57612a9a6124ae565b5b6000612aa9858286016124d9565b9250506020612aba8582860161260e565b9150509250929050565b600082825260208201905092915050565b6000612ae0826126b5565b612aea8185612ac4565b9350612afa8185602086016126d1565b612b03816126fb565b840191505092915050565b60006020820190508181036000830152612b288184612ad5565b905092915050565b6000819050919050565b6000612b55612b50612b4b846124b8565b612b30565b6124b8565b9050919050565b612b6581612b3a565b82525050565b6000602082019050612b806000830184612b5c565b92915050565b600080fd5b7f4e487b7100000000000000000000000000000000000000000000000000000000600052604160045260246000fd5b612bc3826126fb565b810181811067ffffffffffffffff82111715612be257612be1612b8b565b5b80604052505050565b6000612bf56124a4565b9050612c018282612bba565b919050565b600080fd5b6000819050919050565b612c1e81612c0b565b8114612c2957600080fd5b50565b600081359050612c3b81612c15565b92915050565b600080fd5b600080fd5b600067ffffffffffffffff821115612c6657612c65612b8b565b5b612c6f826126fb565b9050602081019050919050565b82818337600083830152505050565b6000612c9e612c9984612c4b565b612beb565b905082815260208101848484011115612cba57612cb9612c46565b5b612cc5848285612c7c565b509392505050565b600082601f830112612ce257612ce1612c41565b5b8135612cf2848260208601612c8b565b91505092915050565b600060408284031215612d1157612d10612b86565b5b612d1b6040612beb565b90506000612d2b84828501612c2c565b600083015250602082013567ffffffffffffffff811115612d4f57612d4e612c06565b5b612d5b84828501612ccd565b60208301525092915050565b600060208284031215612d7d57612d7c6124ae565b5b600082013567ffffffffffffffff811115612d9b57612d9a6124b3565b5b612da784828501612cfb565b91505092915050565b6000602082019050612dc560008301846129d5565b92915050565b60007fff0000000000000000000000000000000000000000000000000000000000000082169050919050565b612e0081612dcb565b82525050565b600081519050919050565b600082825260208201905092915050565b6000612e2d82612e06565b612e378185612e11565b9350612e478185602086016126d1565b612e50816126fb565b840191505092915050565b612e6481612c0b565b82525050565b600081519050919050565b600082825260208201905092915050565b6000819050602082019050919050565b6000612ea2838361268b565b60208301905092915050565b6000602082019050919050565b6000612ec682612e6a565b612ed08185612e75565b9350612edb83612e86565b8060005b83811015612f0c578151612ef38882612e96565b9750612efe83612eae565b925050600181019050612edf565b5085935050505092915050565b600060e082019050612f2e600083018a612df7565b8181036020830152612f408189612e22565b90508181036040830152612f548188612e22565b9050612f6360608301876129d5565b612f70608083018661254d565b612f7d60a0830185612e5b565b81810360c0830152612f8f8184612ebb565b905098975050505050505050565b600060208284031215612fb357612fb26124ae565b5b600082013567ffffffffffffffff811115612fd157612fd06124b3565b5b612fdd8482850161257c565b91505092915050565b600080fd5b600080fd5b60008083601f84011261300657613005612c41565b5b8235905067ffffffffffffffff81111561302357613022612fe6565b5b60208301915083600182028301111561303f5761303e612feb565b5b9250929050565b600080600080606085870312156130605761305f6124ae565b5b600061306e8782880161260e565b945050602061307f878288016124d9565b935050604085013567ffffffffffffffff8111156130a05761309f6124b3565b5b6130ac87828801612ff0565b925092505092959194509250565b7f4e487b7100000000000000000000000000000000000000000000000000000000600052603260045260246000fd5b7f4e487b7100000000000000000000000000000000000000000000000000000000600052602260045260246000fd5b6000600282049050600182168061313057607f821691505b602082108103613143576131426130e9565b5b50919050565b7f4e487b7100000000000000000000000000000000000000000000000000000000600052601160045260246000fd5b6000613183826124b8565b91507fffffffffffffffffffffffffffffffffffffffffffffffffffffffffffffffff82036131b5576131b4613149565b5b600182019050919050565b600080fd5b600080fd5b600080fd5b600080833560016020038436030381126131ec576131eb6131c0565b5b80840192508235915067ffffffffffffffff82111561320e5761320d6131c5565b5b60208301925060018202360383131561322a576132296131ca565b5b509250929050565b600082905092915050565b60008190508160005260206000209050919050565b60006020601f8301049050919050565b600082821b905092915050565b60006008830261329f7fffffffffffffffffffffffffffffffffffffffffffffffffffffffffffffffff82613262565b6132a98683613262565b95508019841693508086168417925050509392505050565b6000819050919050565b6132d483612b3a565b6132e86132e0826132c1565b84845461326f565b825550505050565b600090565b6132fd6132f0565b6133088184846132cb565b505050565b5b8181101561332c576133216000826132f5565b60018101905061330e565b5050565b601f821115613371576133428161323d565b61334b84613252565b8101602085101561335a578190505b61336e61336685613252565b83018261330d565b50505b505050565b600082821c905092915050565b600061339460001984600802613376565b1980831691505092915050565b60006133ad8383613383565b9150826002028217905092915050565b6133c78383613232565b67ffffffffffffffff8111156133e0576133df612b8b565b5b6133ea8254613118565b6133f5828285613330565b6000601f8311600181146134245760008415613412578287013590505b61341c85826133a1565b865550613484565b601f1984166134328661323d565b60005b8281101561345a57848901358255600182019150602085019450602081019050613435565b868310156134775784890135613473601f891682613383565b8355505b6001600288020188555050505b50505050505050565b6134988383836133bd565b505050565b60008101600083016134af81856131cf565b6134ba81838661348d565b505050505050565b6134cc828261349d565b5050565b60006134db826124b8565b91506134e6836124b8565b92508282019050808211156134fe576134fd613149565b5b92915050565b60006040820190506135196000830185612e5b565b6135266020830184612e5b565b9392505050565b60006020828403121561354357613542612b86565b5b61354d6020612beb565b9050600082013567ffffffffffffffff81111561356d5761356c612c06565b5b61357984828501612ccd565b60008301525092915050565b6000613591368361352d565b9050919050565b600060ff82169050919050565b6135ae81613598565b82525050565b60006040820190506135c960008301856135a5565b81810360208301526135db8184612ad5565b90509392505050565b6000815190506135f3816124c2565b92915050565b60006020828403121561360f5761360e6124ae565b5b600061361d848285016135e4565b91505092915050565b61362f826126b5565b67ffffffffffffffff81111561364857613647612b8b565b5b6136528254613118565b61365d828285613330565b600060209050601f831160018114613690576000841561367e578287015190505b61368885826133a1565b8655506136f0565b601f19841661369e8661323d565b60005b828110156136c6578489015182556001820191506020850194506020810190506136a1565b868310156136e357848901516136df601f891682613383565b8355505b6001600288020188555050505b505050505050565b7f4e487b7100000000000000000000000000000000000000000000000000000000600052602160045260246000fd5b600060208201905061373c6000830184612e5b565b92915050565b6000819050919050565b61375d61375882612c0b565b613742565b82525050565b600061376f828461374c565b60208201915081905092915050565b600060608201905061379360008301866135a5565b81810360208301526137a58185612ad5565b905081810360408301526137b98184612ad5565b9050949350505050565b60006137d66137d184612c4b565b612beb565b9050828152602081018484840111156137f2576137f1612c46565b5b6137fd8482856126d1565b509392505050565b600082601f83011261381a57613819612c41565b5b815161382a8482602086016137c3565b91505092915050565b600060208284031215613849576138486124ae565b5b600082015167ffffffffffffffff811115613867576138666124b3565b5b61387384828501613805565b91505092915050565b600060608201905061389160008301866135a5565b81810360208301526138a38185612ad5565b90506138b260408301846135a5565b949350505050565b600060a0820190506138cf6000830188612e5b565b6138dc6020830187612e5b565b6138e96040830186612e5b565b6138f660608301856129d5565b613903608083018461254d565b9695505050505050565b60006080820190506139226000830187612e5b565b61392f60208301866135a5565b61393c6040830185612e5b565b6139496060830184612e5b565b95945050505050565b6000604082019050818103600083015261396c8185612ad5565b905061397b60208301846135a5565b939250505056fea2646970667358221220416bb02317a0470e89d0ea09ce553ebedc50c62ac3570eee7ce6a3d0791241ab64736f6c63430008140033",
  "linkReferences": {},
  "deployedLinkReferences": {}
}